:100000000C94D6000C94FE000C94FE000C94FE00A0
:100010000C94FE000C94FE000C94FE000C94FE0068
:100020000C94FE000C94FE000C9486080C9451096C
:100030000C94FE000C94FE000C94FE000C94FE0048
:100040000C94FE000C94FE000C94FE000C94FE0038
:100050000C94FE000C94FE000C94FE000C94EB0437
:100060000C94FE000C94FE000C94FE000C94FE0018
:100070000C94FE000C94FE000C94FE000C94FE0008
:100080000C94FE000C94FE000C94FE000C94FE00F8
:100090000C9435050C94FE000C94FE000C94FE00AC
:1000A0000C94FE000C94FE000C94FE00084AD73B12
:1000B0003BCE016E84BCBFFDC12F3D6C74319ABD37
:1000C00056833DDA3D00C77F11BED9E4BB4C3E915B
:1000D0006BAAAABE000000803F00000000002500BF
:1000E00028002B002E003100000000002400270013
:1000F0002A002D0030000404040404030405020255
:1001000002020403020202020606060606060404B0
:100110000202020404040802011040804010204042
:1001200080408008020401804020100201108010ED
:1001300020404020080B00020202010009040000D8
:100140000102020000052400100105240101010440
:10015000240206052406000107058103100040095A
:10016000040100020A000000070502024000000727
:100170000583024000000403090412010002EF029B
:100180000140412336800001010203014172647580
:10019000696E6F204C4C430041726475696E6F202C
:1001A0004C656F6E6172646F0000851111241FBE73
:1001B000CFEFDAE0DEBFCDBF11E0A0E0B1E0E2E2D8
:1001C000F0E302C005900D92A638B107D9F723E0FD
:1001D000A6E8B1E001C01D92A739B207E1F710E02F
:1001E000C6EDD0E004C02197FE010E94DA16C53D9D
:1001F000D107C9F70E94520C0C940F180C94000000
:100200002FB7F89487708093E9009091E800892FC8
:10021000807295FF04C09091F20080E4891B2FBF8B
:100220000895CF92DF92EF92FF920F931F93CF9397
:10023000DF936C017A018B01C0E0D0E0CE15DF05C1
:1002400081F0D8016D918D01D601ED91FC91019065
:10025000F081E02DC6010995892B11F02196EECF92
:100260007E01C701DF91CF911F910F91FF90EF9019
:10027000DF90CF900895CF93DF931F92CDB7DEB775
:100280006983DC01ED91FC910280F381E02D41E076
:1002900050E0BE016F5F7F4F09950F90DF91CF91C6
:1002A000089583E08093E9008091F200882319F09B
:1002B0008AE38093E800089583E00E94000190E0C3
:1002C0000895FC018485958597FD0BC09FB7F89430
:1002D00082E08093E9008091F2009FBF90E0019658
:1002E00008959FB7F89482E08093E9008091F2002E
:1002F0009FBF90E00895CF93DF9390E0FC01EB5E09
:10030000FE4F2491FC01EA50FF4F8491882361F154
:1003100090E0880F991FFC01E851FF4FC591D491DF
:10032000FC01E652FF4FA591B491611109C09FB73E
:10033000F8948881209582238883EC912E230BC02A
:10034000623061F49FB7F8948881322F309583230F
:100350008883EC912E2B2C939FBF06C08FB7F89407
:10036000E8812E2B28838FBFDF91CF9108953FB76F
:10037000F8948091CA019091CB01A091CC01B091E9
:10038000CD0126B5A89B05C02F3F19F00196A11DF0
:10039000B11D3FBFBA2FA92F982F8827820F911D1B
:1003A000A11DB11DBC01CD0142E0660F771F881F62
:1003B000991F4A95D1F708958F929F92AF92BF925D
:1003C000CF92DF92EF92FF926B017C010E94B70106
:1003D0004B015C01C114D104E104F104F1F00E946D
:1003E000B701DC01CB0188199909AA09BB09883E2C
:1003F0009340A105B10570F321E0C21AD108E108CC
:10040000F10888EE880E83E0981EA11CB11CC1146F
:10041000D104E104F10419F7DDCFFF90EF90DF90F4
:10042000CF90BF90AF909F908F90089585ED80936F
:10043000BC008091BC0084FDFCCF10921A0208958C
:100440004091A601262F30E0240F311D21323105C5
:10045000DCF420911A022430C9F4FC0180E090E021
:10046000861758F43091A6012191DC01AA57BE4F9E
:10047000A30FB11D2C930196F3CF8091A601680FB5
:100480006093A60180E0089581E0089582E00895D8
:100490000895E091D3018091D201E81730F4F0E0A3
:1004A000EC52FE4F808190E008958FEF9FEF08950A
:1004B0009091D3018091D201981750F4E92FF0E088
:1004C000EC52FE4F208130E09F5F9093D30102C039
:1004D0002FEF3FEFC90108958091D20190E0209164
:1004E000D301821B91090895CF92DF92EF92FF9280
:1004F0000F931F93CF93DF937C01CB018A0120914F
:100500003E02222389F0EB016B01C40ED51ECC15EF
:10051000DD0569F06991D701ED91FC910190F081C1
:10052000E02DC7010995F3CF642F0E942002C80176
:10053000DF91CF911F910F91FF90EF90DF90CF90BF
:100540000895CF93DF931F92CDB7DEB769832091D3
:100550003E022223D1F020913B02203240F021E0E4
:1005600030E0FC013383228380E090E015C080916D
:100570003C02E82FF0E0E55EFD4F998190838F5FAC
:1005800080933C0280933B0205C061E0CE0101965E
:100590000E94200281E090E00F90DF91CF910895BA
:1005A000089580E090E00895DC01FB0112968C91A3
:1005B000129790E02481358182179307D1F49181BD
:1005C0008081813A31F481E0913091F0933089F467
:1005D00011C0813271F49B3021F482811F968C937B
:1005E00005C09A3031F4828150968C9381E0089551
:1005F000089580E00895DC01FB0188E4808389E4AC
:10060000818384E482831D969C911D979F709F5BDC
:1006100093831D968D919C911E9724E096958795C6
:100620002A95E1F78F708F5B848385E00895FC0144
:1006300082818F5BFB01808381E008950F931F937C
:10064000CF93DF931F92CDB7DEB78C01FC01848579
:10065000958597FF0EC0CE0101960E94580801971C
:1006600019F4898190E002C08FEF9FEFF801958720
:100670008487F801848595850F90DF91CF911F9134
:100680000F910895CF93DF931F92CDB7DEB7FC0192
:100690008485958597FD05C02FEF3FEF358724872B
:1006A0000BC0CE0101960E945808019719F4898168
:1006B00090E002C08FEF9FEF0F90DF91CF910895F0
:1006C0000E940118EF92FF920F931F93CF93DF9335
:1006D000FB012081213869F52381223251F5DC01AB
:1006E00012962C9130E0448155814217530709F549
:1006F0008C01FC01C385D485E12CF12C209799F065
:100700004C815D816A817B818E81811180E80E94AC
:10071000F8088F3FFFEF9F0779F0E80EF91E099068
:10072000D881C02DEBCF81E0D8011F968C93C701F3
:1007300005C080E090E002C08FEF9FEFDF91CF9186
:100740001F910F91FF90EF900895CF93DF93CDB756
:10075000DEB769970FB6F894DEBF0FBECDBFFC01C0
:10076000DB018C918F5F8C93BE016F5F7F4F89E1BE
:10077000DB011D928A95E9F729E0298384E08A83C9
:1007800091E09D8383E08E832A8721E22B879C87DB
:100790009D879F8722E2288B27E02B8B25E02C8BDF
:1007A0008E8B20E430E0388F2F8B998F82818B8362
:1007B00095858685998B8A8B838180688D8B49E1AD
:1007C00050E080E00E94F80869960FB6F894DEBF0A
:1007D0000FBECDBFDF91CF91089540914D02509152
:1007E0004E0220914B0230914C0242175307B4F451
:1007F0009091E8009570E1F39091E80092FD19C0A6
:100800008093F10080914D0290914E0201968F737A
:100810009927892B19F48EEF8093E80080914D027F
:1008200090914E02019690934E0280934D0281E08A
:10083000089580E008957F928F929F92AF92BF9229
:10084000CF92DF92EF92FF920F931F93CF93DF939C
:10085000C82E8B017A0180915302811103C08FEF62
:100860009FEF74C08091500280FF05C08091E0002E
:1008700082608093E000CE2DDF2DD12C8AEFB82E40
:100880008C2D8770982E8C2D8072882E8C2D8074E4
:10089000782E9AE3A92E209719F4DD2009F451C08F
:1008A0008C2D0E94000181110AC0BA94BB20B9F2BC
:1008B00061E070E080E090E00E94DC01ECCF282F46
:1008C00030E0C217D3070CF48C2F9FB7F8949092A6
:1008D000E9002091E80025FF32C0282F30E0C21B3C
:1008E000D30B882029F08150A0F01092F100FBCFAB
:1008F000F801C7FE0AC0815050F044914093F100C6
:100900003196F9CF41914093F1008150D8F7020F11
:10091000131FDD2019F0A092E8000AC08091E800C2
:1009200085FD08C0A092E800DD24D394209739F01B
:10093000D12C05C0209719F47110A092E8009FBF38
:10094000AACF5D9884E680935102C701DF91CF91D1
:100950001F910F91FF90EF90DF90CF90BF90AF90DD
:100960009F908F907F900895CF93DF93EC018091BB
:100970000B01882331F083E00E941B04181619062E
:1009800034F081E090E09B838A8380E090E0DF9107
:10099000CF910895615030F02091F100FC01208347
:1009A0000196F8CF289884E68093520208958091AA
:1009B000430281110DC082E080933F0284E0809366
:1009C0004002109242021092410281E08093430261
:1009D0008FE392E008951F920F920FB60F921124A9
:1009E0002F933F938F939F93AF93BF938091CE01AB
:1009F0009091CF01A091D001B091D1013091C90166
:100A000023E0230F2D3720F40196A11DB11D05C051
:100A100026E8230F0296A11DB11D2093C9018093E2
:100A2000CE019093CF01A093D001B093D1018091DA
:100A3000CA019091CB01A091CC01B091CD0101965A
:100A4000A11DB11D8093CA019093CB01A093CC014D
:100A5000B093CD01BF91AF919F918F913F912F9115
:100A60000F900FBE0F901F9018951F920F920FB608
:100A70000F9211242F933F934F935F936F937F9324
:100A80008F939F93AF93BF93EF93FF938091B900A0
:100A9000887F803609F49CC068F5883209F45BC011
:100AA00090F4803109F454C038F4882309F4F2C07A
:100AB000883009F44DC0F2C0883109F44CC080324E
:100AC00009F45DC0EBC0803409F468C048F4803399
:100AD00009F455C0883309F0E1C080931802D4C0EE
:100AE000803509F44FC0883509F45DC0883409F0B9
:100AF000D5C0D2C0883909F4C3C0A8F4883709F436
:100B000067C038F4883609F463C0803709F460C0E0
:100B1000C5C0883809F4B4C0803909F45FC0803892
:100B200009F0BCC05BC0803B09F484C038F4803A53
:100B300009F466C0883A09F47DC0B0C0803C09F46D
:100B4000A3C0883C09F4A0C0883B09F486C0A6C0B5
:100B50008091F50110C090911702809116029817AC
:100B600070F5E091170281E08E0F80931702F0E09C
:100B7000EA50FE4F80818093BB0085EC82C0809359
:100B800018028AC0E091170281E08E0F809317024D
:100B90008091BB00F0E0EA50FE4F808390911702F5
:100BA000809116026AC0E091170281E08E0F809357
:100BB00017028091BB00F0E0EA50FE4F80838091E5
:100BC0001902811169C081E08093F40184EA5DC05B
:100BD00083E080931A021092C801CFCF8091C801A0
:100BE000803208F04DC0E091C80181E08E0F809303
:100BF000C8018091BB00F0E0E855FE4F8083BDCF77
:100C000085EC8093BC0010921A028091C80180325A
:100C100030F4E091C801F0E0E855FE4F1082609199
:100C2000C80170E088EA91E0E0E0F0E009951092F8
:100C3000C80134C084E080931A021092A701109278
:100C4000A601E0E0F0E009958091A601811105C0C0
:100C500081E08093A60110928601E091A70181E0D6
:100C60008E0F8093A701F0E0EA57FE4F80818093BA
:100C7000BB009091A7018091A601981708F47DCF41
:100C800085E88093BC000AC085EC8093BC0010927C
:100C90001A0204C0109218020E941602FF91EF91EE
:100CA000BF91AF919F918F917F916F915F914F9184
:100CB0003F912F910F900FBE0F901F901895DF92CC
:100CC000EF92FF920F931F93CF93DF93D82EF92EBD
:100CD000E42E062F10E0C8010196880F0E94ED0354
:100CE00083E00E94ED03CD2DDF2D0C0F1D1FC017DB
:100CF000D10789F0E7FE03C0FE01849101C088811D
:100D00000E94ED03F82E80E00E94ED038F212196D2
:100D10008111EDCF01C081E0DF91CF911F910F9143
:100D2000FF90EF90DF9008957F928F929F92AF9205
:100D3000BF92CF92DF92EF92FF920F931F93CF93C8
:100D4000DF93CDB7DEB7ADB6BEB6809179032DB7D0
:100D50003EB7281B31090FB6F8943EBF0FBE2DBF1A
:100D60008DB79EB701966C01E0904803F12C8091FD
:100D7000440390914503D601FC019F01281B390BC8
:100D80002E153F051CF421912D93F7CF8091490337
:100D9000882369F1809140039091410397FD0AC037
:100DA00068E671E00E94B2166DE270E00E94B21631
:100DB000262F01C028E0809142039091430397FDC4
:100DC00009C068E671E00E94B2166DE270E00E9410
:100DD000B21601C068E0F601EE0DFF1D30E1639F21
:100DE000C0011124822B8083C70101967C018601FA
:100DF0000E0D1F1D20914E0330914F0340914C0367
:100E000050914D0360912A0370912B0380914A0306
:100E100081700E94F70BE80EF91E86010E0D1F1D52
:100E2000209152033091530340915003509151034C
:100E300060912C0370912D0380914A0386958170F7
:100E40000E94F70BE80EF91E86010E0D1F1D209162
:100E500056033091570340915403509155036091CC
:100E60002E0370912F0380914A0382FB882780F91B
:100E70000E94F70BE80EF91E86010E0D1F1D209132
:100E80005A0330915B03409158035091590360918C
:100E900030037091310380914A0383FB882780F9E6
:100EA0000E94F70BE80EF91E86010E0D1F1D209102
:100EB0005E0330915F0340915C0350915D0360914C
:100EC00032037091330380914A03829581700E94AE
:100ED000F70BE80EF91E86010E0D1F1D209162030F
:100EE000309163034091600350916103609134033A
:100EF0007091350380914A0385FB882780F90E9411
:100F0000F70BE80EF91E86010E0D1F1D20916603DA
:100F100030916703409164035091650360913803F9
:100F20007091390380914B0381700E94F70BE80E9A
:100F3000F91E86010E0D1F1D20916A0330916B036F
:100F400040916803509169036091360370913703B3
:100F500080914B03869581700E94F70BE80EF91E75
:100F600086010E0D1F1D20916E0330916F0340917D
:100F70006C0350916D0360913A0370913B03809133
:100F80004B0382FB882780F90E94F70BE80EF91EBD
:100F900086010E0D1F1D2091720330917303409145
:100FA00070035091710360913C0370913D038091F7
:100FB0004B0383FB882780F90E94F70B8E0D9F1D42
:100FC0008601080F191F2091760330917703409115
:100FD00074035091750360913E0370913F038091BB
:100FE0004B03829581700E94F70B0091790310E00A
:100FF000709078038091B602811105C00E948F0B1A
:1010000081E08093B60248019FEF891A990AEDB7F3
:10101000FEB7E819F9090FB6F894FEBF0FBEEDBF91
:101020002DB73EB72F5F3F4F79017182A801B601FE
:10103000C90101960E9406188091A802A401B70177
:1010400080640E941B040FB6F894BEBE0FBEADBEF6
:10105000DF91CF911F910F91FF90EF90DF90CF9094
:10106000BF90AF909F908F907F900895CF93DF9324
:10107000009779F0FC0101900020E9F73197AF016A
:10108000481B590BBC0185E592E00E94B404EC01B9
:1010900002C0C0E0D0E042E050E063E871E085E5E6
:1010A00092E00E94B4048C0F9D1FDF91CF910895B0
:1010B00020915302211103C08FEF9FEF08955FB776
:1010C000F89422E02093E9002091F20030E012161B
:1010D000130614F421E030E0422FFC0184E6415075
:1010E00038F02898809352029091F1009193F7CFB5
:1010F0002115310521F08091F200882319F05FBF9E
:10110000C90108958BE68093E800F9CF1F920F92F2
:101110000FB60F9211248F939F938091E1009091CD
:10112000E100937F9093E10083FF0FC01092E900EC
:1011300091E09093EB001092EC0092E39093ED001D
:101140001092530298E09093F00082FF20C093E049
:101150009093E9009091F200992319F09AE390930B
:10116000E80090915102992339F0909151029150E9
:1011700090935102992389F190915202992339F069
:1011800090915202915090935202992341F184FF21
:1011900010C08091E2008E7E81608093E200809199
:1011A000E1008F7E8093E100809150028E7E80610D
:1011B00011C080FF16C08091E2008E7E8061809316
:1011C000E2008091E1008E7E8093E10080915002E8
:1011D0008E7E81608093500204C05D9ACDCF289AA4
:1011E000D6CF9F918F910F900FBE0F901F901895A3
:1011F000DF92EF92FF920F931F93CF93DF93D82E3E
:101200008A017B01E40EF51EEB01CE15DF0571F0BE
:10121000D7FE03C0FE01849101C088810E94ED03C6
:1012200021968111F2CF8FEF9FEF01C0C801DF91AE
:10123000CF911F910F91FF90EF90DF9008950F9342
:101240001F93CF93DF931F92CDB7DEB782E08983E0
:1012500042E450E064E371E080E80E94F8080E94F4
:10126000D704DC0112960D911C91139701151105FD
:1012700089F0D801ED91FC910280F381E02DBE014F
:101280006F5F7F4FC801099597FD04C0F801008585
:101290001185ECCF89810F90DF91CF911F910F9134
:1012A00008951F920F920FB60F921124CF92DF92E2
:1012B000EF92FF920F931F932F933F934F935F9360
:1012C0006F937F938F939F93AF93BF93EF93FF930E
:1012D000CF93DF93CDB7DEB76C97DEBFCDBF109253
:1012E000E9008091E80083FFFBC168E0CE014596EC
:1012F0000E94CA0482EF8093E8008D8987FF05C0B1
:101300009091E80090FFFCCF03C09EEF9093E8001F
:10131000982F907609F0C6C09E894F89588D2F89E5
:10132000F88C91110CC0803829F480914F02809381
:10133000F10002C01092F1001092F10045C191300D
:1013400051F4811141C14130510509F03DC18091F5
:101350004F028D7F0BC0933061F4811135C1413054
:10136000510509F031C180914F02826080934F0294
:101370002BC1953049F48091E80080FFFCCF822F8B
:1013800080688093E30020C1963009F05EC00B8D29
:101390001C8D22E01092E90010924E0210924D0234
:1013A000F21232C010924C0210924B020E941F099E
:1013B00099E0BE016F5F7F4FDB01E92F1D92EA9537
:1013C000E9F79983FA8291E09E8390EA98879AEFF1
:1013D000998720914D0230914E02275F3F4F3C8309
:1013E0002B838D831092E90010924E0210924D02D1
:1013F00010934C0200934B0249E050E080E00E94C1
:10140000F8080E941F09E0C010934C0200934B02A1
:101410000E94D704DC0112960D911C9113970115BF
:10142000110509F4BBC0D801ED91FC910480F58150
:10143000E02DBE016B5E7F4FC8010995009709F052
:10144000C7C0F80100851185EACF973009F445C17E
:10145000983021F481E08093F100B6C0993009F012
:10146000B3C0837009F039C1EDE0F1E081E031E013
:1014700096E32081211109C08EE78093EA00109243
:10148000EA008F89809353029FC08093E9003093D4
:10149000EB0021912093EC009093ED008F5F87305B
:1014A00041F7EACF8B8D9C8D1092E90010924E028D
:1014B00010924D0290934C0280934B02898D8111C2
:1014C00053C08E899D89913A49F4813209F005C152
:1014D00047E050E064E071E080E0BBC0913209F089
:1014E000FCC0833269F48F89988DA0E0B0E08093CE
:1014F000000190930101A0930201B093030164C025
:10150000803269F48091E80082FFFCCF67E084E0DC
:1015100091E00E94CA048BEF8093E80055C08232AC
:1015200009F052C08F8980930B01EEEFFFE78591A0
:1015300094918B3F9C4D19F0E0E0F8E002C0EEEF93
:10154000FAE08091040190910501A0910601B0910B
:101550000701803B9440A105B10509F09EC0809130
:101560000B0180FF79C099C00E94D704FC01028161
:1015700013810115110509F4B0C0D801ED91FC915A
:101580000190F081E02DBE016B5E7F4FC80109958F
:1015900081111AC0F80100851185EBCFF1E0FF162B
:1015A00009F44EC0F3E0FF1298C08F89882309F434
:1015B0004AC0823089F440E860E188E991E00E9405
:1015C0005F06882309F489C08EEF8093E80088C005
:1015D00018161906CCF381C0813029F440E86BE07D
:1015E0008CE891E0ECCF833009F077C00E94D704FB
:1015F000DC011296ED90FC9013978E010F5F1F4F48
:101600006801E114F10479F0D701ED91FC910680B5
:10161000F781E02DB801C7010995080F111DF701E9
:10162000E084F184EECFD8011C92F60101900020F5
:10163000E9F73197BF016C197D0940E0C601BFCFC2
:101640006AE771E002C066E771E0FB01449150E097
:1016500080E80E94F808B8CFEE3F2AE0F20751F088
:10166000808191818737A7E79A0721F09093FF0A3D
:101670008093FE0A87E797E79183808380916000DB
:10168000809354029BE088E10FB6F894A89580936C
:1016900060000FBE9093600097CF80819181873763
:1016A000974709F091CFA895809160008861809359
:1016B00060008091540280936000EE3FBAE0FB0727
:1016C00039F08091FE0A9091FF0A918380837CCF4C
:1016D0001092FF0A1092FE0A77CF81E28093EB000E
:1016E0006C960FB6F894DEBF0FBECDBFDF91CF91E1
:1016F000FF91EF91BF91AF919F918F917F916F91EA
:101700005F914F913F912F911F910F91FF90EF901B
:10171000DF90CF900F900FBE0F901F90189581E033
:101720008093A9028093AA022FEA32E03093AC02A0
:101730002093AB021092AE021092AD022DE131E087
:101740003093A6022093A5021092B1021092B0022B
:101750001092B3021092B2028093B4028093B50249
:1017600081EC8093AF020E94D704FC01218180911B
:10177000A90290E0820F911D0897C4F5A281B38160
:10178000109729F485EA92E0938382830EC018961D
:101790008D919C911997009711F0DC01F8CF85EAA3
:1017A00092E019969C938E93189780818093A7025C
:1017B00081818093A80290818091AA02890F808301
:1017C00080E09091A902891788F4A091AB02B091B2
:1017D000AC02A80FB11D9C91A181B0E0A45FBE4FE7
:1017E0009C9391819F5F91838F5FEBCF0895CF9200
:1017F000DF92EF92FF920F931F93CF93DF93D90164
:10180000E801421753071CF0FA01690102C06A019E
:10181000F9018823E1F1CB016C157D050CF4C601BB
:101820009F018E179F070CF49C01A417B50734F491
:10183000CF01821B930B9C012C0D3D1D0D2C000C28
:10184000EE08FF08C901330FAA0BBB0B9C01AD01C9
:101850002C193D094E095F09AEEFBFEF0E94CE1370
:101860008F01FF0F220B330BA90198012C193D09A1
:101870004E095F090E94AF13DA01C9018F5F9F47CC
:10188000A109B1098883998382E090E002C080E0D9
:1018900090E0DF91CF911F910F91FF90EF90DF903B
:1018A000CF900895CF93DF93CDB7DEB766970FB68D
:1018B000F894DEBF0FBECDBF789484B5826084BD3E
:1018C00084B5816084BD85B5826085BD85B5816044
:1018D00085BD80916E00816080936E0010928100C2
:1018E000809181008260809381008091810081607D
:1018F000809381008091800081608093800080913E
:10190000910082608093910080919100816080932A
:101910009100809190008160809390008091C1003F
:1019200084608093C1008091C10082608093C10077
:101930008091C10081608093C1008091C30081606B
:101940008093C3008091C00082608093C00080912A
:10195000C20081608093C20080917A00846080938D
:101960007A0080917A00826080937A0080917A0078
:10197000816080937A0080917A00806880937A00F9
:101980001092530210924F02109250028091D70091
:1019900081608093D70080EA8093D80089B5806108
:1019A00089BD89B5826089BD09B400FEFDCF61E0C3
:1019B00070E080E090E00E94DC018091D8008F7C94
:1019C00080618093D8008091E000807F8093E00068
:1019D0008091E1008E7E8093E1008DE08093E200B3
:1019E000559A209A8FEF9FEF909362028093610245
:1019F00089E491E00E94360880E691E00E94360872
:101A000060E082E10E947B0160E083E10E947B0153
:101A100060E084E10E947B0162E080E00E947B0143
:101A200062E087E00E947B0162E088E00E947B0127
:101A300062E089E00E947B0162E08AE00E947B0113
:101A400062E08BE00E947B0162E08CE00E947B01FF
:101A500062E08DE00E947B018EE691E00E943608F4
:101A600021E83FEF30934D0320934C038FE790E044
:101A700090934F0380934E03309351032093500370
:101A80009093530380935203309355032093540350
:101A900090935703809356038FEF90E090936503E4
:101AA00080936403109267031092660381E0809331
:101AB00046030E94940611E005EC10933E0228E6CE
:101AC00020933D0210923C0210923B028091BE0294
:101AD0009091BF02DC01ED91FC910190F081E02D2D
:101AE0006BE3099520913B02213208F047C08091B9
:101AF0001A028111FCCF80913D02B2E0B0931A022C
:101B0000109219023FEF309318021092170220939F
:101B10001602EBE1F2E0A6EFB1E090E0291721F028
:101B200031913D939F5FFACF1092F5019091F501AD
:101B3000880F892B8093F5018091F401813069F43D
:101B40001092F4018091F5018093BB008091BC005C
:101B500083FDF8CF0093BC0003C085EE8093BC00EA
:101B600080911A028230E1F3809118028F3F31F0A8
:101B700080911802803211F08091180210923C027C
:101B800010923B0210923E0280911A028111FCCF0A
:101B900010931A02109319029FEF9093180210925B
:101BA0001702ADE0A09316021093F5018091F501A4
:101BB000806D8093F5018091F401813069F4109279
:101BC000F4018091F5018093BB008091BC0083FDFE
:101BD000F8CF0093BC0003C0B5EEB093BC00809179
:101BE0001A028130E1F3809117028E3018F490913F
:101BF000170201C09EE0A6EFB1E0E4EDF1E080E065
:101C0000891721F02D9121938F5FFACF1092D30184
:101C10008093D2018091BE029091BF02DC01ED91D0
:101C2000FC910284F385E02D0995F82E8091BE0287
:101C30009091BF02DC01ED91FC910284F385E02DCF
:101C40000995FA82198229813A81822B932B9093EC
:101C5000C1028093C0028091BE029091BF02DC015C
:101C6000ED91FC910284F385E02D0995F82E809189
:101C7000BE029091BF02DC01ED91FC910284F385DC
:101C8000E02D0995FC821B822B813C81822B932BBA
:101C90009093C3028093C2028091BE029091BF02D2
:101CA000DC01ED91FC910284F385E02D0995F82E7D
:101CB0008091BE029091BF02DC01ED91FC91028403
:101CC000F385E02D0995FE821D822D813E81822BB8
:101CD000932B9093C5028093C4028091BE02909191
:101CE000BF02DC01ED91FC910284F385E02D0995A2
:101CF000F82E8091BE029091BF02DC01ED91FC9123
:101D00000284F385E02D0995F8861F822F8138859E
:101D1000822B932B9093C7028093C6028091BE02C0
:101D20009091BF02DC01ED91FC910284F385E02DDE
:101D30000995F82E8091BE029091BF02DC01ED91D1
:101D4000FC910284F385E02D0995FA861986298590
:101D50003A85822B932B9093C9028093C80280917D
:101D6000BE029091BF02DC01ED91FC910284F385EB
:101D7000E02D0995F82E8091BE029091BF02DC0102
:101D8000ED91FC910284F385E02D0995FC861B867C
:101D90002B853C85822B932B9093CB028093CA0298
:101DA0008091BE029091BF02DC01ED91FC91028412
:101DB000F385E02D0995F82E8091BE029091BF0227
:101DC000DC01ED91FC910284F385E02D0995FE86FE
:101DD0001D862D843E84282A392A3092CD022092F5
:101DE000CC026091C6027091C702072E000C880BCE
:101DF000990B0E945D1520E030EF41E456E40E940B
:101E00000B1420E030E04AEA53E40E94E9146093A6
:101E1000DA027093DB028093DC029093DD02609122
:101E2000C0027091C102072E000C880B990B0E9412
:101E30005D1520E030E040E858E30E941D164B019C
:101E40005C016093DE027093DF028093E002909366
:101E5000E1026091C2027091C302072E000C880B50
:101E6000990B0E945D1520E030E040E858E30E94A5
:101E70001D166B017C016093E2027093E302809374
:101E8000E4029093E5026091C4027091C502072EAE
:101E9000000C880B990B0E945D1520E030E040E8B3
:101EA00058E30E941D162B013C016093E6027093DB
:101EB000E7028093E8029093E90220E030E0A90174
:101EC000C501B4010E941016A501940118160CF06A
:101ED0005058C301B2010E940B149B01AC01C70111
:101EE000B6010E948A1420E030E044EB53E40E94E3
:101EF0001D1620E030E040E05FE30E941D162BED50
:101F00003FE049E450E40E94E914609302037093B7
:101F10000303809304039093050320E030E0A901BC
:101F2000C701B6010E941016181624F0F7FAF094B3
:101F3000F7F8F094A7019601C301B2010E940B14B7
:101F40009B01AC01C501B4010E948A1420E030E07D
:101F500044EB53E40E941D1620E030E040E05FEBCC
:101F60000E941D162BED3FE049E450E40E94E91465
:101F7000609306037093070380930803909309030B
:101F80006091CA027091CB02072E000C880B990B4E
:101F90000E945D1520E030E043E852E40E94E9141D
:101FA0006B017C016091C8027091C902072E000C80
:101FB000880B990B0E945D1520E030E043E852E465
:101FC0000E94E9142091CE023091CF024091D002BC
:101FD0005091D1020E940A146093EA027093EB02BE
:101FE0008093EC029093ED022091D2023091D302C3
:101FF0004091D4025091D502C701B6010E940A1443
:102000006093EE027093EF028093F0029093F102DE
:10201000B101330C880B990B0E945D1520E030E074
:1020200043E852E40E94E9142091D6023091D7028D
:102030004091D8025091D9020E940A146093F20292
:102040007093F3028093F4029093F5022FB7F89403
:102050008091CE019091CF01A091D001B091D1019A
:102060002FBFC0901E03D0901F03E0902003F0907C
:102070002103BC01CD016C197D098E099F090E94C5
:102080005B152FE632E143E85AE30E941D166B010F
:102090007C0160931A0370931B0380931C0390933D
:1020A0001D032091EA023091EB024091EC02509125
:1020B000ED020E941D162B013C019B01AC016091B9
:1020C000F6027091F7028091F8029091F9020E9455
:1020D0000B146093F6027093F7028093F8029093CA
:1020E000F9022091EE023091EF024091F0025091FE
:1020F000F102C701B6010E941D166F87788B898B8C
:102100009A8B9B01AC016091FA027091FB02809165
:10211000FC029091FD020E940B146093FA027093EE
:10212000FB028093FC029093FD022091F202309119
:10213000F3024091F4025091F502C701B6010E94EA
:102140001D162091FE023091FF0240910003509134
:1021500001030E940B146B8B7C8B8D8B9E8B609389
:10216000FE027093FF02809300039093010380901E
:10217000260390902703A0902803B0902903C090D5
:102180002203D0902303E0902403F09025032091B4
:102190000E0330910F034091100350911103C301BE
:1021A000B2010E940B14A50194010E941D162B017F
:1021B0003C012091020330910303409104035091AC
:1021C0000503C701B6010E941D169B01AC01C301A6
:1021D000B2010E940B1460930E0370930F0380935F
:1021E0001003909311032091120330911303409137
:1021F0001403509115036F85788989899A890E9403
:102200000B14A50194010E941D164B015C01209145
:102210000603309107034091080350910903C70159
:10222000B6010E941D169B01AC01C501B4010E94BC
:102230000B14609312037093130380931403909311
:1022400015038B899C89AD89BE8980931603909371
:102250001703A0931803B09319032FB7F894809134
:10226000CE019091CF01A091D001B091D1012FBFAB
:1022700080931E0390931F03A0932003B093210328
:10228000ACE0B0E0B0932B03A0932A038091460307
:1022900081110E9494062CE030E030932D032093AE
:1022A0002C038091460381110E9494068CE090E0FB
:1022B00090932F0380932E038091460381110E94F7
:1022C0009406ACE0B0E0B0933D03A0933C03809152
:1022D000460381110E9494062CE030E030933903CC
:1022E000209338038091460381110E94940669E18E
:1022F00070E080E090E00E94DC0180E090E0892BBB
:1023000009F4DBCB0E940000D7CBCF92DF92EF9293
:10231000FF920F931F93CF93DF93CDB7DEB7C659CC
:10232000D1090FB6F894DEBF0FBECDBF1092580290
:102330001092570288EE93E0A0E0B0E0809359023B
:1023400090935A02A0935B02B0935C0229E231E0C1
:1023500030935602209355022FEF3FEF30936202E5
:1023600020936102EFEFE0937A0310927C031092C6
:102370007B0310928603109285034FEF5FEFBA0143
:10238000409381035093820360938303709384038B
:1023900010928A031092890380938B0390938C038D
:1023A000A0938D03B0938E038BE391E09093880309
:1023B00080938703109245031092440310924803C0
:1023C00010924D0310924C038FEF93E090934F03C4
:1023D00080934E0310925103109250039093530335
:1023E0008093520310925503109254039093570315
:1023F00080935603109259031092580390935B03F5
:1024000080935A0310925D0310925C0390935F03D4
:1024100080935E03109261031092600390936303B4
:102420008093620310926503109264039093670394
:1024300080936603109269031092680390936B0374
:1024400080936A0310926D0310926C0390936F0354
:1024500080936E0310927103109270039093730334
:102460008093720310927503109274039093770314
:102470008093760363E06093780397E0909347033B
:102480001092490390934A0389E080934B0355E0EF
:10249000598311E01A838B8328E02C8371EA7D83B2
:1024A0001E8325E82F83688759878A8729E12B8730
:1024B0001C8729E22D879E8725E12F87188A25E230
:1024C000298B1A8B45E74B8B1C8B35E93D8B9E8BFB
:1024D00095E59F8B188E95E6998F1A8E21E82B8FA4
:1024E00092E09C8F4D8F1E8F3F8F18A329A36AA364
:1024F0005BA31CA38DA31EA3F6E1FF2EFFA218A7CA
:1025000000E809A7B6E2BAA7EBA7AFE7ACA74DA7CB
:10251000F0E1FEA73FA768AB79AB1AAA8BAB60E3EB
:102520006CAB8DAB61E36EAB8FAB62E368AF29AF91
:102530009AAF60EC6BAF5CAF9DAFFEAE1FAF219664
:102540000FAF21972296BFAF22972396EFAF239725
:102550002496AFAF249725964FAF25972696FFAFC9
:10256000269727963FAF279728969FAF28972996BB
:102570007FAF29972A961FAE2A972B968FAF2B975E
:102580003AEB2C963FAF2C972D968FAF2D9785EC7D
:102590002E968FAF2E972F962FAF2F9760969FAFC7
:1025A000609761966FAF619762966FAF629781E5B2
:1025B00090E00E94E0166C0181E5FE013196D601A3
:1025C00001900D928A95E1F787E090E00E94E01675
:1025D0007C01FC0111821082D382C28281E590E0ED
:1025E0009583848316828091B602811104C00E9473
:1025F0008F0B1093B602E091B002F091B1023097C8
:1026000029F4F092B102E092B00208C08081918179
:10261000009711F0FC01FACFF182E0822091B20222
:102620003091B302F70184819581820F931F9093BB
:10263000B3028093B20290914703892F86958695C5
:102640008695977009F08F5F809348031091480337
:10265000812F90E00E94E0169093450380934403FD
:1026600081E090914903911101C080E0165F180F3D
:102670001093790310922B0310922A0310922D03CA
:1026800010922C0310922F0310922E0310923103FC
:1026900010923003109233031092320310923503DC
:1026A00010923403109237031092360310923903BC
:1026B0001092380310923B0310923A0310923D039C
:1026C00010923C0310923F0310923E038FEF9FEF56
:1026D000909341038093400390934303809342037C
:1026E00080E090E02091480330E0821793074CF49B
:1026F000E0914403F0914503E80FF91F1082019621
:10270000F1CF87E893E09093BF028093BE028AE006
:1027100097EDA3EABCE38093220390932303A09355
:102720002403B093250388E491EEAAE7BFE38093E6
:10273000260390932703A0932803B0932903CA5636
:10274000DF4F0FB6F894DEBF0FBECDBFDF91CF9144
:102750001F910F91FF90EF90DF90CF900895052E7D
:1027600097FB1EF400940E94C61357FD07D00E94E9
:10277000D91307FC03D04EF40C94C6135095409522
:10278000309521953F4F4F4F5F4F0895909580951D
:10279000709561957F4F8F4F9F4F08950E94FB1357
:1027A000A59F900DB49F900DA49F800D911D1124A5
:1027B0000895A1E21A2EAA1BBB1BFD010DC0AA1F82
:1027C000BB1FEE1FFF1FA217B307E407F50720F09A
:1027D000A21BB30BE40BF50B661F771F881F991F15
:1027E0001A9469F760957095809590959B01AC015E
:1027F000BD01CF010895A29FB001B39FC001A39F67
:10280000700D811D1124911DB29F700D811D112429
:10281000911D08955058BB27AA270E9422140C949A
:10282000D6150E94C81538F00E94CF1520F039F453
:102830009F3F19F426F40C949E150EF4E095E7FBE7
:102840000C949815E92F0E94E71558F3BA17620700
:1028500073078407950720F079F4A6F50C94091600
:102860000EF4E0950B2EBA2FA02D0B01B9019001AB
:102870000C01CA01A0011124FF27591B99F0593FEF
:1028800050F4503E68F11A16F040A22F232F342F37
:102890004427585FF3CF469537952795A795F04085
:1028A0005395C9F77EF41F16BA0B620B730B840B9A
:1028B000BAF09150A1F0FF0FBB1F661F771F881F52
:1028C000C2F70EC0BA0F621F731F841F48F48795AA
:1028D00077956795B795F7959E3F08F0B0CF93959C
:1028E000880F08F09927EE0F9795879508950E9415
:1028F000C81560F080E891E009F49EEF0E94CF15C2
:1029000028F040E851E071F45EEF0CC00C949E1585
:102910000C940916E92FE0780E94E71540F3092E80
:10292000052AB1F3261737074807590738F00E2E46
:1029300007F8E02569F0E025E0640AC0EF6307F8D6
:10294000009407FADB01B9019D01DC01CA01AD0168
:10295000EF930E9400150E94D6150E94BA145F9151
:10296000552339F02BED3FE049E450FD49EC0C9440
:102970000B140895DF93DD27B92FBF7740E85FE39D
:102980001616170648075B0718F4D92F0E9415166C
:102990009F938F937F936F930E948A16ECEAF0E0E7
:1029A0000E94A1150E94D6152F913F914F915F91E2
:1029B0000E943016DD2351F09058A2EA2AED3FE044
:1029C00049EC5FE3D0785D270E942214DF910C94DC
:1029D000D6150E94FD140C94D6150E94CF1558F000
:1029E0000E94C81540F029F45F3F29F00C94981517
:1029F00051110C940A160C949E150E94E71568F369
:102A00009923B1F3552391F3951B550BBB27AA27A7
:102A100062177307840738F09F5F5F4F220F331FE1
:102A2000441FAA1FA9F335D00E2E3AF0E0E832D0A9
:102A300091505040E695001CCAF72BD0FE2F29D0AC
:102A4000660F771F881FBB1F261737074807AB077E
:102A5000B0E809F0BB0B802DBF01FF2793585F4FF3
:102A60003AF09E3F510578F00C9498150C940A1694
:102A70005F3FE4F3983ED4F3869577956795B795D5
:102A8000F7959F5FC9F7880F911D9695879597F9E0
:102A90000895E1E0660F771F881FBB1F6217730759
:102AA0008407BA0720F0621B730B840BBA0BEE1F6E
:102AB00088F7E0950895E89409C097FB3EF4909557
:102AC0008095709561957F4F8F4F9F4F9923A9F007
:102AD000F92F96E9BB279395F69587957795679596
:102AE000B795F111F8CFFAF4BB0F11F460FF1BC0DA
:102AF0006F5F7F4F8F4F9F4F16C0882311F096E96D
:102B000011C0772321F09EE8872F762F05C066231A
:102B100071F096E8862F70E060E02AF09A95660FD3
:102B2000771F881FDAF7880F9695879597F908958C
:102B300097F99F6780E870E060E008959FEF80EC70
:102B40000895DF93CF931F930F93FF92EF92DF923D
:102B50007B018C01689406C0DA2EEF010E943016CA
:102B6000FE01E894A5912591359145915591A6F3E3
:102B7000EF010E942214FE019701A801DA9469F77F
:102B8000DF90EF90FF900F911F91CF91DF9108950B
:102B900000240A941616170618060906089500243C
:102BA0000A9412161306140605060895092E0394B6
:102BB000000C11F4882352F0BB0F40F4BF2B11F42A
:102BC00060FF04C06F5F7F4F8F4F9F4F089557FD89
:102BD0009058440F551F59F05F3F71F04795880F8B
:102BE00097FB991F61F09F3F79F087950895121622
:102BF00013061406551FF2CF4695F1DF08C01616CE
:102C000017061806991FF1CF86957105610508947E
:102C10000895E894BB2766277727CB0197F9089595
:102C20000E948E1608F48FEF08959B01AC0160E0BE
:102C300070E080E89FE30C94E9140E9430160C9435
:102C4000D6150E94C81538F00E94CF1520F09523A4
:102C500011F00C9498150C949E1511240C940A16DE
:102C60000E94E71570F3959FC1F3950F50E0551F33
:102C7000629FF001729FBB27F00DB11D639FAA27D1
:102C8000F00DB11DAA1F649F6627B00DA11D661F20
:102C9000829F2227B00DA11D621F739FB00DA11D41
:102CA000621F839FA00D611D221F749F3327A00DFB
:102CB000611D231F849F600D211D822F762F6A2F97
:102CC00011249F5750409AF0F1F088234AF0EE0FFC
:102CD000FF1FBB1F661F771F881F91505040A9F729
:102CE0009E3F510580F00C9498150C940A165F3F96
:102CF000E4F3983ED4F3869577956795B795F79565
:102D0000E7959F5FC1F7FE2B880F911D96958795DC
:102D100097F908959B01AC010C941D16990F0008BA
:102D2000550FAA0BE0E8FEEF16161706E807F9079D
:102D3000C0F012161306E407F50798F0621B730B38
:102D4000840B950B39F40A2661F0232B242B252BB9
:102D500021F408950A2609F4A140A6958FEF811D5C
:102D6000811D089597FB072E16F4009407D077FD78
:102D700009D00E94C61607FC05D03EF490958195B7
:102D80009F4F0895709561957F4F0895AA1BBB1BB7
:102D900051E107C0AA1FBB1FA617B70710F0A61B5B
:102DA000B70B881F991F5A95A9F780959095BC017C
:102DB000CD010895EE0FFF1F0590F491E02D0994C9
:102DC0000F931F93CF93DF938230910510F482E02D
:102DD00090E0E0919503F091960320E030E0A0E0D0
:102DE000B0E0309719F14081518102811381481779
:102DF0005907C8F08417950769F4109731F01296B7
:102E00000C93129713961C9327C00093950310936D
:102E1000960322C02115310519F04217530718F403
:102E20009A01BD01EF01DF01F801DBCF211531056A
:102E3000F9F0281B390B2430310580F48A819B81FD
:102E40006115710521F0FB019383828304C0909387
:102E5000960380939503FE01329644C0FE01E20F73
:102E6000F31F8193919322503109398328833AC00B
:102E70002091930330919403232B41F42091150169
:102E80003091160130939403209393032091130102
:102E9000309114012115310541F42DB73EB7409111
:102EA000170150911801241B350BE0919303F09109
:102EB0009403E217F307A0F42E1B3F0B28173907E2
:102EC00078F0AC014E5F5F4F2417350748F04E0F86
:102ED0005F1F50939403409393038193919302C097
:102EE000E0E0F0E0CF01DF91CF911F910F910895C5
:102EF000CF93DF93009709F481C0FC0132971382CE
:102F00001282A0919503B0919603109781F42081CD
:102F10003181820F931F20919303309194032817DE
:102F2000390751F5F0939403E093930367C0ED01E3
:102F300020E030E0CE17DF0740F44A815B819E013C
:102F400041155105F1F0EA01F5CFD383C2834081E9
:102F50005181840F951FC817D90759F48881998129
:102F6000840F951F0296918380838A819B8193832E
:102F700082832115310529F4F0939603E09395039C
:102F80003DC0E901FB83EA8349915991C40FD51FE4
:102F9000EC17FD0761F480819181840F951F0296E3
:102FA000E90199838883828193819B838A83E0E00E
:102FB000F0E012968D919C911397009719F0FD0106
:102FC000DC01F7CF8D919C9111979D012E5F3F4FB2
:102FD000820F931F20919303309194032817390790
:102FE00069F4309729F4109296031092950302C069
:102FF00013821282B0939403A0939303DF91CF9135
:10300000089581E090E0F8940C940F18FB01DC0126
:1030100002C001900D9241505040D8F70895F894A5
:02302000FFCFE0
:10302200FFFFFFFF00E100000000000000C18081FF
:1030320000000000009703800000000000D402A5F9
:10304200036203FB02000000003B01B4045C015177
:1030520001610142031E0300000000A1027402D1BB
:103062000248026C02580249024B372073696D759F
:103072006C61746F72207374617274696E672E0072
:1030820053657474696E672050494E732E00536500
:103092007474696E67207570204A6F7973746963FE
:0630A2006B2E000D0A0078
:00000001FF
